S01700006932635F6D61737465725F746573742E7372656305
S11300000C9459000C9481000C9481000C94810090
S11300100C9481000C9481000C9481000C94810058
S11300200C9481000C9481000C9481000C94810048
S11300300C9481000C9481000C9481000C94810038
S11300400C9403040C9481000C949E020C94D00232
S11300500C9481000C9481000C9481000C94810018
S11300600C9455070C948100000000080002010064
S1130070000304070000000000000000010204085F
S113008010204080010204081020010204081020FE
S1130090040404040404040402020202020203032A
S11300A00303030300000000250028002B000003C5
S11300B0520611241FBECFEFD8E0DEBFCDBF11E042
S11300C0A0E0B1E0E8E0F2E102C005900D92A237B1
S11300D0B107D9F723E0A2E7B1E001C01D92A13036
S11300E0B207E1F710E0C9E5D0E004C02197FE01B2
S11300F00E94FC08C735D107C9F70E942E030C944F
S113010002090C9400008DE392E00E94B70526E0FA
S113011040E855E260E070E087E991E00E94360231
S113012060E071E087E991E00E94820368E370E097
S11301308DE392E00E94D305E7E8F1E081E080835B
S113014081E3818382E3828383E3838344E050E019
S1130150BF018DE392E00E944B058DE392E00C9485
S11301604F06CF93809172018095809372016BE169
S113017071E087E991E00E947C031092760110926D
S11301807501C4E08091750190917601409764F502
S113019068E370E08DE392E00E94D305C093870189
S11301A08091750180938801809172018093890107
S11301B043E050E067E871E08DE392E00E944B0574
S11301C08DE392E00E944F0665E070E080E090E0ED
S11301D00E9472048091750190917601019690932A
S11301E0760180937501CECF40E150E060918901A2
S11301F087E991E00E94F1036CE271E087E991E004
S11302000E94820368E370E08DE392E00E94D305CC
S113021083E08093870180E18093880110928901B3
S113022043E050E067E871E08DE392E00E944B0503
S11302308DE392E00E944F0640E150E068E370E0F5
S11302408DE392E00E944C061092740110927301A7
S11302508DE392E00E94E904892B09F18DE392E099
S11302600E94F1042091730130917401A9014F5F40
S11302705F4F5093740140937301F901E958FE4FA5
S1130280808340E150E0682F87E991E00E94EA030F
S11302906CE371E087E991E00E947C03D9CF87E9A0
S11302A091E00E947E0364EF71E080E090E0CF91E2
S11302B00C947204FC01918D228D892F90E0805C56
S11302C09F4F821B91098F7399270895FC01918D8B
S11302D0828D981731F0828DE80FF11D858D90E0A5
S11302E008958FEF9FEF0895FC01918D828D9817EB
S11302F061F0828DDF01A80FB11D5D968C91928D06
S11303009F5F9F73928F90E008958FEF9FEF089502
S1130310FC01538D448D252F30E0842F90E0821B07
S1130320930B541710F0CF9608950197089586EF14
S113033092E0892B49F080E090E0892B29F00E941B
S1130340F60281110C9400000895FC01848DDF01F4
S1130350A80FB11DA35ABF4F2C91848D90E0019634
S11303608F739927848FA689B7892C93A089B18923
S11303708C91837080648C93938D848D981306C0C4
S11303800288F389E02D80818F7D80830895EF9228
S1130390FF920F931F93CF93DF93EC0181E0888F3B
S11303A09B8D8C8D981305C0E889F989808185FD22
S11303B026C0F62E0B8D10E00F5F1F4F0F73112711
S11303C0E02E8C8DE8120CC00FB607FCFACFE8893A
S11303D0F989808185FFF5CFCE010E94A501F1CF77
S11303E08B8DFE01E80FF11DE35AFF4FF0829FB79A
S11303F0F8940B8FEA89FB89808180620AC09FB7D9
S1130400F894EE89FF896083E889F9898081837093
S1130410806480839FBF81E090E0DF91CF911F9142
S11304200F91FF90EF900895CF93DF93EC01888DA7
S11304308823C9F0EA89FB89808185FD05C0A889E4
S1130440B9898C9186FD0FC00FB607FCF5CF80816A
S113045085FFF2CFA889B9898C9185FFEDCFCE01B4
S11304600E94A501E7CFDF91CF910895CF92DF924B
S1130470EF92FF921F93CF93DF93EC016A017B010C
S1130480122FE889F98982E080834115514E610574
S11304907105B1F060E079E08DE390E0A701960189
S11304A00E94DA08DA01C9010197A109B109B695D8
S11304B0A795979587959C01211580E13807A8F0A9
S11304C0E889F989108260E874E88EE190E0A70178
S11304D096010E94DA08DA01C9010197A109B1095C
S11304E0B695A795979587959C01EC85FD853083F6
S11304F0EE85FF852083188EEC89FD891083EA89B7
S1130500FB89808180618083EA89FB89808188609E
S11305108083EA89FB89808180688083EA89FB89FA
S113052080818F7D8083DF91CF911F91FF90EF9029
S1130530DF90CF90089580E090E008951F920F928D
S11305400FB60F9211242F938F939F93EF93FF93E2
S1130550E091A701F091A8018081E091AD01F091B3
S1130560AE0182FD12C090818091B0018F5F8F73C4
S11305702091B101821751F0E091B001F0E0E95609
S1130580FE4F958F8093B00101C08081FF91EF9160
S11305909F918F912F910F900FBE0F901F901895E0
S11305A01F920F920FB60F9211242F933F934F93E4
S11305B05F936F937F938F939F93AF93BF93EF93C7
S11305C0FF9387E991E00E94A501FF91EF91BF910C
S11305D0AF919F918F917F916F915F914F913F91D7
S11305E02F910F900FBE0F901F90189587E991E0FF
S11305F00E945A0121E0892B09F420E0822F0895FA
S1130600E7E9F1E01382128288EE93E0A0E0B0E023
S113061084839583A683B78382E491E09183808366
S113062085EC90E09587848784EC90E097878687B3
S113063080EC90E0918B808B81EC90E0938B828BAB
S113064082EC90E0958B848B86EC90E0978B868B84
S1130650118E128E138E148E089508950E94AE0486
S11306600E942D030E948300C7E9D1E00E94B100DB
S11306702097E1F30E949701F9CFCF92DF92EF9296
S1130680FF920F931F93CF93DF936C017A018B0139
S1130690C0E0D0E0CE15DF0581F0D8016D918D0169
S11306A0D601ED91FC910190F081E02DC6010995F0
S11306B0892B11F02196EECF7E01C701DF91CF91F6
S11306C01F910F91FF90EF90DF90CF9008956115E7
S11306D0710579F0FB0101900020E9F73197AF0132
S11306E0461B570BDC01ED91FC910280F381E02D58
S11306F0099480E090E008950C94670360E571E04C
S11307000C9467030F931F93CF93DF93EC010E9424
S113071067038C01CE010E947E03800F911FDF913D
S1130720CF911F910F9108958F929F92AF92BF9294
S1130730EF92FF920F931F93CF93DF93CDB7DEB762
S1130740A1970FB6F894DEBF0FBECDBF7C01FA01AE
S1130750CB0119A2223008F42AE08E010F5D1F4F4D
S1130760822E912CA12CB12CBF01A50194010E94D1
S1130770DA08F901CA01015011096A3010F4605D08
S113078001C0695CD8016C93232B242B252B61F7C2
S1130790B801C7010E946703A1960FB6F894DEBFA3
S11307A00FBECDBFDF91CF911F910F91FF90EF90BE
S11307B0BF90AF909F908F9008952115310541F41B
S11307C0DC01ED91FC910190F081E02D642F0994FE
S11307D00C9494039A01462F50E060E070E00C946E
S11307E0DD030F931F93CF93DF93EC010E94EA0381
S11307F08C01CE010E947E03800F911FDF91CF9167
S11308001F910F9108951F920F920FB60F9211240A
S11308102F933F938F939F93AF93BF938091350210
S113082090913602A0913702B0913802309134028F
S113083023E0230F2D3720F40196A11DB11D05C01F
S113084026E8230F0296A11DB11D20933402809344
S1130850350290933602A0933702B0933802809108
S1130860390290913A02A0913B02B0913C02019668
S1130870A11DB11D8093390290933A02A0933B02CB
S1130880B0933C02BF91AF919F918F913F912F9173
S11308900F900FBE0F901F9018953FB7F89480915A
S11308A0390290913A02A0913B02B0913C0226B5E4
S11308B0A89B05C02F3F19F00196A11DB11D3FBF94
S11308C0BA2FA92F982F8827820F911DA11DB11D22
S11308D0BC01CD0142E0660F771F881F991F4A951E
S11308E0D1F708958F929F92AF92BF92CF92DF92E9
S11308F0EF92FF926B017C010E944D044B015C015D
S1130900C114D104E104F10401F10E9456060E94CD
S11309104D04DC01CB0188199909AA09BB09883E59
S11309209340A105B10560F321E0C21AD108E108A2
S1130930F10888EE880E83E0981EA11CB11CC11436
S1130940D104E104F10419F7DBCFFF90EF90DF90BD
S1130950CF90BF90AF909F908F900895789484B576
S1130960826084BD84B5816084BD85B5826085BDA7
S113097085B5816085BDEEE6F0E08081816080838D
S1130980E1E8F0E010828081826080838081816070
S11309908083E0E8F0E0808181608083E1EBF0E037
S11309A0808184608083E0EBF0E0808181608083DB
S11309B0EAE7F0E0808184608083808182608083C4
S11309C08081816080838081806880831092C100EF
S11309D008958091710290E020917202821B910926
S11309E008959091720280917102981750F4E92F42
S11309F0F0E0ED58FD4F208130E09F5F909372024C
S1130A0002C02FEF3FEFC9010895E0917202809177
S1130A107102E81730F4F0E0ED58FD4F808190E06A
S1130A2008958FEF9FEF08950895CF93DF93EC011E
S1130A30E0914902F0914A023097F1F090917202EC
S1130A40809171029817C0F090E0292F30E02617AA
S1130A50370754F4DE01A20FB31F4C91D901AD58EE
S1130A60BD4F4C939F5FF1CF10927202609371025D
S1130A70CB01DF91CF910994DF91CF910895E0915B
S1130A804B02F0914C02309729F010924F021092D1
S1130A904E0209940895CF92DF92EF92FF920F9342
S1130AA01F93CF93DF937C01CB018A0120914D02E8
S1130AB0222389F0EB016B01C40ED51ECC15DD0594
S1130AC069F06991D701ED91FC910190F081E02DDD
S1130AD0C7010995F3CF642F0E941307C801DF9162
S1130AE0CF911F910F91FF90EF90DF90CF900895D9
S1130AF0CF93DF931F92CDB7DEB7698320914D0268
S1130B002223D1F020914E02203240F021E030E047
S1130B10FC013383228380E090E015C080914F0272
S1130B20E82FF0E0E05BFD4F998190838F5F809325
S1130B304F0280934E0205C061E0CE0101960E94EF
S1130B40130781E090E00F90DF91CF910895FC01AD
S1130B501382128288EE93E0A0E0B0E08483958350
S1130B60A683B78383E691E09183808308951092EE
S1130B7072021092710210924F0210924E020E9461
S1130B8057068FE395E00E94400785E195E00C94B9
S1130B903B0781E080934D026093700210924F02F4
S1130BA010924E0208950C94C9050F93062F21E06C
S1130BB040914E0260E572E0809170020E94BD0691
S1130BC010924F0210924E0210924D020F9108950E
S1130BD04F925F926F927F92AF92BF92CF92EF92B9
S1130BE0FF920F931F93CF93DF935C01F62ED42FC4
S1130BF028013901EE2021F10E94C905CE2DC4300F
S1130C0008F0C3E0C150C0F028E0C29FC001112425
S1130C10A301920104C056954795379527958A9567
S1130C20D2F7CA01B901D501ED91FC910190F0818F
S1130C30E02DC5010995E6CF60E0C5010E94D50508
S1130C404D2FD13208F040E22C2D63E772E08F2D56
S1130C500E9475061092720280937102DF91CF9107
S1130C601F910F91FF90EF90CF90BF90AF907F9026
S1130C706F905F904F900895CF92EF920F931F93D0
S1130C80C22EE12C00E010E098010E94E8051F91BB
S1130C900F91EF90CF90089521E00C943C0661E011
S1130CA00C94D5058DE392E00C94A7050895109259
S1130CB0000381E08093FE021092FD0261E082E174
S1130CC00E94AB0861E083E10E94AB08E9EBF0E02D
S1130CD080818E7F808380818D7F808388E4809370
S1130CE0B80085E48093BC000895413208F043C005
S1130CF0909100039111FCCF91E090930003209315
S1130D00FE022FEF209393021092D802240F209317
S1130D10D7029093FF029091FF02880F892B809352
S1130D20FF028091FD02813061F41092FD028091F6
S1130D30FF028093BB008091BC0083FDF8CF85EC5B
S1130D4001C085EE8093BC00809100038130E1F303
S1130D508091D802841710F44091D802A9EDB2E032
S1130D60962FFB018E2F891B841718F48D91819384
S1130D70F9CF842F089580E008950F93413208F04D
S1130D804AC0909100039111FCCF32E030930003EC
S1130D900093FE023FEF309393021092D8024093E7
S1130DA0D702562FA9EDB2E0FB013E2F351B3417B5
S1130DB018F431913D93F9CF1092FF023091FF0264
S1130DC0880F832B8093FF028091FD02813061F4B0
S1130DD01092FD028091FF028093BB008091BC00C1
S1130DE083FDF8CF85EC01C085EE8093BC002223FF
S1130DF021F0809100038230D1F3809193028F3FE0
S1130E0079F080919302803241F080919302803393
S1130E1031F094E005C091E003C092E001C093E09A
S1130E20892F0F9108954091B502262F30E0240FA9
S1130E30311D21323105DCF4209100032430C9F442
S1130E40FC0180E090E0861758F43091B5022191BE
S1130E50DC01A954BD4FA30FB11D2C930196F3CF10
S1130E608091B502680F6093B50280E0089581E037
S1130E70089582E008959093FA028093F902089508
S1130E809093FC028093FB02089585ED8093BC004F
S1130E908091BC0084FDFCCF10920003089585EC82
S1130EA08093BC001092000308951F920F920FB616
S1130EB00F9211242F933F934F935F936F937F93DC
S1130EC08F939F93AF93BF93EF93FF938091B90058
S1130ED0887F803609F49EC078F5883209F45DC0B5
S1130EE090F4803109F456C038F4882309F4F5C02D
S1130EF0883009F44FC0F5C0883109F44EC08032FF
S1130F0009F45FC0EEC0803409F46AC058F4803339
S1130F1009F457C0883309F0E4C0809393020E9417
S1130F204F07DFC0803509F44FC0883509F45DC030
S1130F30883409F0D6C0D3C0883909F4C4C0A8F4F1
S1130F40883709F467C038F4883609F463C08037F9
S1130F5009F460C0C6C0883809F4B5C0803909F402
S1130F605FC0803809F0BDC05BC0803B09F483C01A
S1130F7038F4803A09F466C0883A09F47CC0B1C0F8
S1130F80803C09F4A4C0883C09F4A1C0883B09F45E
S1130F9087C0A7C08091FF0210C09091D8028091B1
S1130FA0D702981770F5E091D80281E08E0F8093F4
S1130FB0D802F0E0E752FD4F80818093BB0085ECBE
S1130FC083C0809393028BC0E091D80281E08E0F9E
S1130FD08093D8028091BB00F0E0E752FD4F8083FC
S1130FE09091D8028091D7026BC0E091D80281E041
S1130FF08E0F8093D8028091BB00F0E0E752FD4F42
S113100080838091FE0281116AC081E08093FD0299
S113101084EA5EC083E08093000310929402CFCFF1
S113102080919402803208F04EC0E091940281E0F5
S11310308E0F809394028091BB00F0E0EB56FD4F3D
S11310408083BDCF0E944F0780919402803230F498
S1131050E0919402F0E0EB56FD4F1082609194020F
S113106070E0E091F902F091FA0285E992E00995C5
S11310701092940236C084E0809300031092B6026A
S11310801092B502E091FB02F091FC020995809167
S1131090B502811105C081E08093B5021092B702B8
S11310A0E091B60281E08E0F8093B602F0E0E9543D
S11310B0FD4F80818093BB009091B6028091B50270
S11310C0981708F47CCF85E88093BC000AC085ECAF
S11310D08093BC001092000304C0109293020E94FB
S11310E04507FF91EF91BF91AF919F918F917F91B0
S11310F06F915F914F913F912F910F900FBE0F9081
S11311001F901895833081F028F4813099F0823053
S1131110A1F008958730A9F08830B9F08430D1F473
S1131120809180008F7D03C0809180008F778093B1
S11311308000089584B58F7702C084B58F7D84BD07
S113114008958091B0008F7703C08091B0008F7DA7
S11311508093B00008951F93CF93DF93282F30E03E
S1131160F901E859FF4F8491F901E458FF4FD491F4
S1131170F901E057FF4FC491CC23C1F0162F811120
S11311800E948208EC2FF0E0EE0FFF1FEC55FF4F9A
S1131190A591B4919FB7F894111104C08C91D09586
S11311A0D82302C0EC91DE2BDC939FBFDF91CF915B
S11311B01F910895A1E21A2EAA1BBB1BFD010DC0AD
S11311C0AA1FBB1FEE1FFF1FA217B307E407F507F3
S11311D020F0A21BB30BE40BF50B661F771F881FCF
S11311E0991F1A9469F760957095809590959B0165
S11311F0AC01BD01CF010895EE0FFF1F0590F491DE
S10B1200E02D0994F894FFCFDE
S1131208493243204D617374657220526561642FBD
S113121857726974652054657374005772697465EC
S113122820454550524F4D2E2E2E2E005265616496
S113123820454550524F4D2E2E2E2E0020000000E2
S11312480000C7013D03880114025A0174016601B4
S11312580D0A006E616E00696E66006F76660000A6
S113126800000078054B059B021405E904F1040508
S105127805006B
S9030000FC
